:100000000C94BE020C94E6020C94E6020C94E602F8
:100010000C94E6020C9425200C94E6020C94FE1F2E
:100020000C94E6020C94E6020C94E6020C94E602B0
:100030000C94E6020C94E6020C94E6020C94E602A0
:100040000C94B41F0C94E6020C94E6020C94E602A5
:100050000C94E6020C94E6020C94E6020C94E60280
:100060000C94E6020C94E60208000000BE922449BB
:10007000123EABAAAA2ABECDCCCC4C3E00000080DA
:10008000BEABAAAAAA3E00000000BF000000803F4D
:100090000000000000084178D3BB4387D1133D190D
:1000A0000E3CC3BD4282AD2B3E68EC8276BED98F3A
:1000B000E1A93E4C80EFFFBE01C4FF7F3F0000007E
:1000C000000007634236B79BD8A71A39685618AEA6
:1000D000BAAB558C1D3CB7CC5763BD6DEDFD753E7D
:1000E000F6177231BF000000803F000000000000E2
:1000F00000005F000000000700070000147F147F6D
:100100001400242A7F2A120023130864620036494F
:1001100056205000000807030000001C2241000088
:100120000041221C00002A1C7F1C2A0008083E08EF
:10013000080000807030000008080808080000006F
:10014000606000002010080402003E5149453E0056
:1001500000427F4000007249494946002141494D13
:1001600033001814127F10002745454539003C4ADA
:1001700049493100412111090700364949493600F2
:10018000464949291E0000001400000000403400C8
:10019000000000081422410014141414140000413B
:1001A000221408000201590906003E415D594E0023
:1001B0007C1211127C007F49494936003E41414181
:1001C00022007F4141413E007F49494941007F096A
:1001D000090901003E41415173007F0808087F0072
:1001E00000417F4100002040413F01007F08142270
:1001F00041007F40404040007F021C027F007F049E
:1002000008107F003E4141413E007F090909060078
:100210003E4151215E007F0919294600264949497E
:10022000320003017F0103003F4040403F001F2098
:1002300040201F003F4038403F0063140814630013
:100240000304780403006159494D4300007F414194
:100250004100020408102000004141417F000402D7
:100260000102040040404040400000030708000035
:100270002054547840007F28444438003844444493
:100280002800384444287F0038545454180000088B
:100290007E09020018A4A49C78007F08040478005A
:1002A00000447D4000002040403D00007F10284475
:1002B000000000417F4000007C04780478007C0846
:1002C00004047800384444443800FC1824241800FE
:1002D00018242418FC007C080404080048545454D2
:1002E000240004043F4424003C4040207C001C20A7
:1002F00040201C003C4030403C0044281028440072
:100300004C9090907C004464544C4400000836416A
:1003100000000000770000000041360800000201E4
:1003200002040200FFFFFFFFFF002A2A4554494153
:100330004E4D53555257444B474F4856462A4C2A28
:10034000504A425843595A512A2A353453332A2A9B
:100350002A322A2A2B2A2A2A4A31363D2F2A2A2AA9
:10036000482A372A472A382A39302A2A2A2A2A2A82
:100370002A2A2A2A2A2A3F5F2A2A2A2A222A2A2E97
:100380002A2A2A2A402A2A2A272A2A2D2A2A2A2AB7
:100390002A2A2A2A3B212A292A2A2A2A2A2C2A2AB4
:1003A0002A2A3A2A2A2A2A00202020202020202017
:1003B000200075534458003A20004261636B6C6919
:1003C000676874004951205068617365005041208E
:1003D00042696173206D6178005041204269617308
:1003E000206D696E00526566206672657100545812
:1003F00020447269766500564F58204C6576656CCE
:1004000000564F580053656D692051534B004357B8
:10041000204465636F64657200532D6D6574657269
:10042000004154543200415454004E52004147435D
:10043000005249540056464F204D6F646500547574
:100440006E6520526174650042616E640046696C9D
:10045000746572204257004D6F646500566F6C756D
:100460006D650000000000240027002A0000000045
:1004700000250028002B0000000000230026002992
:10048000000404040404040404020202020202033D
:100490000303030303010204081020408001020447
:1004A00008102001020408102000000008000201CA
:1004B000000003040700000000000000002002B05C
:1004C000C8001040817FA1A6A81FA4D300D501D9E0
:1004D000F1DA02DB058D14AF526573657420736524
:1004E0007474696E67732E2E004245525F693263E1
:1004F0000056616463310056616463300056616484
:1005000063320056617663630056332E33005635EE
:100510002E3000312E30326D0020520008040A05C2
:100520000A04080000000000000000001010101075
:100530001010101010101414141414141010151599
:10054000151515150C121E12120000001C121C129B
:100550001C000000000000000000000064426D204C
:1005600000506F7765722D6F6666203733203A2D05
:100570002900524954200000612F852F11241FBEED
:10058000CFEFD8E0DEBFCDBF12E0A0E0B1E0EEE3F8
:10059000FAE602C005900D92A03DB107D9F725E01B
:1005A000A0EDB2E001C01D92A730B207E1F712E062
:1005B000CDEBD2E004C02197FE010E94EB33CC3B8F
:1005C000D107C9F70E9470200C9412350C940000DA
:1005D0005A9A00000000000000005B9A0000000032
:1005E000000000008AB18C608AB95A9800000000AF
:1005F000000000005B9800000000000000005A9A14
:100600000000000000000000089587FF9AC05A9A79
:1006100000000000000000005B9A000000000000E5
:1006200000005B98000000000000000086FF8BC007
:100630005A9A00000000000000005B9A00000000D1
:10064000000000005B98000000000000000085FF33
:100650007CC05A9A00000000000000005B9A000075
:100660000000000000005B98000000000000000097
:1006700084FF6DC05A9A00000000000000005B9AE1
:1006800000000000000000005B9800000000000077
:10069000000083FF5EC05A9A0000000000000000C6
:1006A0005B9A00000000000000005B980000000062
:1006B0000000000082FF4FC05A9A000000000000B6
:1006C00000005B9A00000000000000005B98000042
:1006D00000000000000081FF40C05A9A00000000A6
:1006E000000000005B9A00000000000000005B9822
:1006F000000000000000000080FF31C05A9A000096
:100700000000000000005B9A0000000000000000F4
:100710005B9800000000000000005A9A00000000F2
:100720000000000000000000000000005B9A0000D4
:100730000000000000005B980000000000000000C6
:1007400008955A9865CF5A9874CF5A9883CF5A987B
:1007500092CF5A98A1CF5A98B0CF5A98BFCF5A98F3
:10076000CECF87FF76C03C983D9800000000000087
:1007700000003D9A000000000000000086FF6BC0F2
:100780003C983D9800000000000000003D9A0000E9
:1007900000000000000085FF60C03C983D9800000C
:1007A0000000000000003D9A000000000000000072
:1007B00084FF55C03C983D980000000000000000F8
:1007C0003D9A000000000000000083FF4AC03C98F2
:1007D0003D9800000000000000003D9A000000006D
:1007E0000000000082FF3FC03C983D9800000000E0
:1007F000000000003D9A000000000000000081FFA2
:1008000034C03C983D9800000000000000003D9A74
:10081000000000000000000080FF29C03C983D98C7
:1008200000000000000000003D9A000000000000F1
:1008300000003C9800000000000000003D9800000F
:100840000000000000003D9A0000000000000000D1
:1008500008953C9A89CF3C9A94CF3C9A9FCF3C9A7A
:10086000AACF3C9AB5CF3C9AC0CF3C9ACBCF3C9A0A
:10087000D6CF2F923F924F925F926F927F928F923C
:100880009F92AF92BF92CF92DF92EF92FF920F931F
:100890001F93CF93DF9300D000D0CDB7DEB7209168
:1008A000ED043091EE044091EF045091F00429835F
:1008B0003A834B835C832091EA04C090F904D09082
:1008C000FA04E090FB04F090FC0430E0DC010E94AC
:1008D00008344B015C01BB0C8808982C54019B0127
:1008E000AC01682D782D882D982D0AE10E94F934ED
:1008F00056016701E12CF12C00E010E00E94243445
:1009000049015A0149805A806B807C80480C591CEF
:100910006A1C7B1C2091EB043091EC04D301C201D2
:1009200043E1B695A795979587954A95D1F7820F9C
:10093000931FA11DB11D37E063227724492F5A2F41
:100940006B2F77274093F4048093F504862D8068FD
:100950008093F604BB27A72D962D852D8093F70451
:100960004092F8040F900F900F900F90DF91CF916D
:100970001F910F91FF90EF90DF90CF90BF90AF90BD
:100980009F908F907F906F905F904F903F902F90AF
:100990000895AF92BF92CF92DF92EF92FF920F93A2
:1009A0001F93CF93DF936C017B018B01040F151F05
:1009B000EB015E01AE18BF08C017D10759F069916D
:1009C000D601ED91FC910190F081E02DC6010995D1
:1009D000892B79F7C501DF91CF911F910F91FF907E
:1009E000EF90DF90CF90BF90AF900895833081F06B
:1009F00028F4813099F08230A9F008958730A9F069
:100A00008830C9F08430B1F4809180008F7D03C0BC
:100A1000809180008F7780938000089584B58F77D0
:100A200084BD089584B58F7DFBCF8091B0008F7712
:100A30008093B00008958091B0008F7DF9CFCF935F
:100A4000DF93282F30E0F901E755FB4F8491F9013E
:100A5000EB56FB4FD491F901EF57FB4FC491CC23D8
:100A6000A1F081110E94F604EC2FF0E0EE0FFF1FC1
:100A7000E958FB4FA591B491EC91ED2381E090E012
:100A800009F480E0DF91CF91089580E090E0FACF03
:100A90001F93CF93DF93282F30E0F901E755FB4FE9
:100AA0008491F901EB56FB4FD491F901EF57FB4FBD
:100AB000C491CC23A9F0162F81110E94F604EC2FCB
:100AC000F0E0EE0FFF1FE359FB4FA591B4918FB7F4
:100AD000F894EC91111108C0D095DE23DC938FBF00
:100AE000DF91CF911F910895DE2BF8CFCF93DF9345
:100AF00090E0FC01EB56FB4F24918F579B4FFC017C
:100B000084918823C9F090E0880F991FFC01ED596A
:100B1000FB4FA591B491FC01E359FB4FC591D491D2
:100B200061110DC09FB7F8948C91209582238C930E
:100B30008881282328839FBFDF91CF910895623059
:100B400051F49FB7F8943C91822F809583238C9326
:100B5000E8812E2BEFCF8FB7F894EC912E2B2C93AE
:100B60008FBFEACF8E3008F08E50877080648093FC
:100B70007C0080917A00806480937A0080917A0072
:100B800086FDFCCF809178009091790008953FB761
:100B9000F8948091990490919A04A0919B04B0914B
:100BA0009C0426B5A89B05C02F3F19F00196A11DF6
:100BB000B11D3FBFBA2FA92F982F8827BC01CD01A7
:100BC000620F711D811D911D42E0660F771F881F06
:100BD000991F4A95D1F708958F929F92AF92BF9235
:100BE000CF92DF92EF92FF924B015C010E94C7050A
:100BF0006B017C010E94C7056C197D098E099F0954
:100C0000683E734081059105A8F321E0821A91089E
:100C1000A108B10888EEC80E83E0D81EE11CF11CC3
:100C200081149104A104B10429F7FF90EF90DF90A3
:100C3000CF90BF90AF909F908F9008952FB7F8946A
:100C40006091950470919604809197049091980416
:100C50002FBF08953D9800000000000000003C9860
:100C600087B18F7C87B93C9A08953D9A00000000B7
:100C7000000000003C980895CF93DF930E94350652
:100C800080EC0E94B1038DE10E94B103C6EED4E076
:100C90008E850E94B1038F850E94B10388890E94CE
:100CA000B10389890E94B1038A890E94B103DF914F
:100CB000CF910C942A06CF93DF93D82FC62F0E9492
:100CC000350688E40E94B1038D2F0E94B1038C2F5A
:100CD0000E94B103DF91CF910C942A06CF93DF934A
:100CE000D82FC92F6FEF86E00E945B066FEF87E079
:100CF0000E945B066D2F82E00E945B0660E086E04A
:100D00000E945B066C2F83E00E945B0660E087E038
:100D1000DF91CF910C945B06FF920F931F93CF93BB
:100D2000DF93C82FF62E072F142F0E94350680EC74
:100D30000E94B1038C2F0E94B103CF2DD02F1150F0
:100D400020F089910E94B103FACFDF91CF911F91DA
:100D50000F91FF900C942A06CF93DF931F92CDB78B
:100D6000DEB7698341E0BE016F5F7F4F0E948C0652
:100D70000F90DF91CF9108952F923F924F925F9203
:100D80006F927F928F929F92AF92BF92CF92DF929B
:100D9000EF92FF920F931F93CF93DF93CDB7DEB700
:100DA00064970FB6F894DEBF0FBECDBF898B4801A4
:100DB00059011701CC8ACB01BA01A90198010E94FF
:100DC000AA3329013B8B2A8B9B01AC0160E070E0C8
:100DD00080E090E003E10E94F934F90175016401BB
:100DE00000E010E098018986DA86AB86FC860D87E4
:100DF0001E872F87388B54016701E12CF12C00E00E
:100E000010E09F010E945534A32FF42FE52F422FAD
:100E10005A2F6F2F7E2FC12CD12C28E0E22EF12CDF
:100E2000CB01BA0137E0660F771F881F991F3A95EB
:100E3000D1F7A70196010E94AA3342019694982CFB
:100E4000882497948794B12CA12C02E0901AA108D1
:100E5000B108280D391D4A1D5B1D1982CA82BC8943
:100E6000A0E1BA9FF0011124842E8E2AF20134975A
:100E700009F041C0ECE08E2A8B823C832D8394E004
:100E8000CC0CDD1CEE1CFF1C9A95D1F7E82AEE82F3
:100E90007F83688748E0BE016F5F7F4F8989880F35
:100EA000880F880F865D0E948C06612F6295660F01
:100EB000660F607CF989F7FF20C060688F2F885E1D
:100EC0000E94AC0664960FB6F894DEBF0FBECDBF8D
:100ED000DF91CF911F910F91FF90EF90DF90CF9016
:100EE000BF90AF909F908F907F906F905F904F904A
:100EF0003F902F900895E0E0BECF6F608989805FBA
:100F00000E94AC0621E01227212F30E0249CA00192
:100F1000259C500D349C500D1124249FC001259F09
:100F2000900D349F900D11246AE570E00E94823389
:100F300089898B55C5CF2F923F924F925F926F92C6
:100F40007F928F929F92AF92BF92CF92DF92EF9259
:100F5000FF920F931F93CF93DF93CDB7DEB76197C7
:100F60000FB6F894DEBF0FBECDBF4B015C015987B1
:100F700048873B832A8321E0821623EA920621EEEA
:100F8000A20621E1B206DCF023E030E0CA01B9019B
:100F90000E948233798768878A819B81B9010E9488
:100FA00082337B836A83C501B40123E030E040E0F3
:100FB00050E00E94CC3349015A01198211C030E23D
:100FC000831631EA930637E0A306B104B4F747E08D
:100FD000880C991CAA1CBB1C4A95D1F767E0698351
:100FE00070E8871673EC970679ECA70671E0B706F0
:100FF0000CF045C16091F9047091FA048091FB04F2
:101000009091FC04A0EE8A16A7E69A06A5E3AA062C
:10101000B1040CF444C134E0660F771F881F991F98
:101020003A95D1F7A50194010E94AA331901D9017B
:10103000A501940128583341410951090E940F34F8
:101040006B017C012091F9043091FA044091FB047A
:101050005091FC044090F9045090FA046090FB0415
:101060007090FC044C825D826E827F820E94AA3363
:1010700029013A019101A0E1B7E20E94F9336C0D18
:101080007D1D8E1D9F1D2C813D814E815F810E94A3
:10109000AA33421653066406750619F02FEF221A7A
:1010A000320A31E083163BE3930638E5A30638E0C5
:1010B000B3061CF094E0292E312C20FE03C06FEF04
:1010C000261A360AD101A50194010E940F342B0182
:1010D0003C010091F9041091FA042091FB04309135
:1010E000FC04C12CF12CE12CBC01A2018EEF0E946A
:1010F000BC06C980E884F98495018401B301A2018A
:1011000080E00E94BC06C980EA80FB809501B301A3
:10111000A20181E00E94BC06C980F12CE12C95015E
:10112000B301A20182E00E94BC0688859985AA814C
:10113000BB818A1B9B0B9B838A83C301B201A501E0
:1011400094010E94AA336A817B81629FC001639FE0
:10115000900D729F900D11246AE570E00E94823319
:101160008091FD049091FE048617970741F07093DB
:10117000FE046093FD0460EA81EB0E94AC066CEF14
:1011800083E00E94AC068092E6049092E704A0926D
:10119000E804B092E9042092EA042091F904309125
:1011A000FA044091FB045091FC04C301B2010E9477
:1011B000AA332450310941095E4F3695322F222738
:1011C000379527953093EC042093EB042091F90494
:1011D0003091FA044091FB045091FC04C090F90452
:1011E000D090FA04E090FB04F090FC04C301B2013B
:1011F0000E94AA332B013C01812C912C54016A8757
:101200005B868C877D868E869F86A88AB98A9B019D
:10121000AC0160E070E080E090E00AE10E94F93407
:10122000922E398356016701E12CF12C00E010E089
:10123000292D39810E945534C901DA018093ED04CA
:101240009093EE04A093EF04B093F00461960FB670
:10125000F894DEBF0FBECDBFDF91CF911F910F91EC
:10126000FF90EF90DF90CF90BF90AF909F908F90C6
:101270007F906F905F904F903F902F900895609176
:10128000F9047091FA048091FB049091FC0425E02C
:10129000660F771F881F991F2A95D1F7C3CE20911B
:1012A000F9043091FA044091FB045091FC04A7E04A
:1012B000B0E00E940F34B6CECF93C0E160E88C2F2F
:1012C0000E94AC06CF5FC831C9F76FEF83E00E9480
:1012D000AC0660E08BEBCF910C94AC063D9800001F
:1012E00000000000000096B196B190713D9A000098
:1012F000000000000000911101C080E008955B9A99
:1013000000000000000000005A9A000000000000E9
:10131000000008950F931F93CF93DF9340919304A0
:10132000C0913501C41BDD0BE3E9F3E030E020E0C0
:101330000FEF10E0C901B8010E948233640F61937E
:101340002C0F3D1F84E0E339F807A1F7DF91CF911F
:101350001F910F91089580917A00806480937A00A4
:101360008091060380938A008091780090917900A3
:101370002091360192502450330B02C0880F991FE0
:101380002A95E2F7803E2FEF92074CF0803E9105C0
:1013900014F08FED90E0809680930603089580E02E
:1013A000FBCFEAE7F0E08081806480838091920443
:1013B00080938A000E943C06809178009091790089
:1013C00020913601925002C0880F991F2A95E2F7AA
:1013D0000C94390408958091C80480937C00EAE756
:1013E000F0E08081806480832091780030917900E2
:1013F0002F5F314081E49CE090939F0480939E0492
:1014000080918C0390918D0340918A0350918B03BE
:10141000480F591FCA01880F991F840F951F820F0B
:10142000931F4091880350918903840F951F9595D0
:10143000879530938D0320938C0320918603309100
:1014400087034091840350918503420F531F9A01F3
:10145000220F331F240F351F280F391F409182039D
:1014600050918303240F351F309381032093800311
:10147000909387038093860308958091C804809396
:101480007C00EAE7F0E080818064808380917800CE
:101490009091790020EC3AE030939F0420939E04D1
:1014A00020918A0330918B03309389032093880322
:1014B0008F5F914090938B0380938A03089580916E
:1014C000C80480937C00EAE7F0E080818064808338
:1014D00020917800309179002F5F314086E39BE0C6
:1014E00090939F0480939E04809184039091850340
:1014F000909383038093820380918C0390918D035A
:1015000040918A0350918B03480F591FCA01880FDD
:10151000991F840F951F820F931F4091880350914C
:101520008903840F951F95958795909385038093E4
:10153000840330938D0320938C0308958091C80415
:1015400080937C00EAE7F0E0808180648083809172
:101550007800909179002BEC3BE030939F0420932E
:101560009E0420918A0330918B033093890320934A
:1015700088038F5F914090938B0380938A03089533
:101580008091C90480937C0080917A00806480936C
:101590007A0020917800309179002F5F314080915E
:1015A000D1048823A1F110927B0310927A03109248
:1015B00077031092760380917A0390917B03909346
:1015C00079038093780380E8809388008091740386
:1015D00090917503820F931F97FD019695958795BE
:1015E00030937503209374032BEE39E030939F04FE
:1015F00020939E0420917E0330917F0330937D03DE
:1016000020937C0390937F0380937E030895409101
:101610007803509179038091760390917703840F3A
:10162000951F909377038093760360917A0370916E
:101630007B03460F571F509379034093780395958A
:101640008795959587959595879595958795959582
:1016500087958F37910514F08FEFB6CF80384FEF15
:10166000940714F480E89FEF8058AECF8091C904AE
:1016700080937C0080917A00806480937A0040910E
:101680007800509179004F5F51408091D1048823B8
:1016900009F452C010927B0310927A0310927703E0
:1016A0001092760380917A0390917B039093790353
:1016B0008093780380E880938800809174039091F0
:1016C0007503840F951F97FD01969C01359527950D
:1016D00050937503409374038DE39AE090939F04B5
:1016E00080939E0480917203909173039093710391
:1016F0008093700380916E0390916F0340917E03FD
:1017000050917F03480F591FCA01880F991F840FFA
:10171000951F820F931F40917C0350917D03840F8E
:10172000951F9595879590937303809372033093DB
:101730006F0320936E03089520917803309179030D
:101740008091760390917703820F931F9093770394
:101750008093760360917A0370917B03260F371F85
:101760003093790320937803959587959595879580
:101770009595879595958795959587958F3791053B
:1017800014F08FEF98CF80382FEF920714F480E891
:101790009FEF805890CF8091C90480937C00809106
:1017A0007A00806480937A002091780030917900EB
:1017B0002F5F31408091D1048823A1F110927B03E7
:1017C00010927A03109277031092760380917A0335
:1017D00090917B03909379038093780380E88093C2
:1017E00088008091740390917503820F931F97FD79
:1017F00001969595879530937503209374032FE593
:101800003AE030939F0420939E0420917E03309110
:101810007F0330937D0320937C0390937F03809319
:101820007E03089540917803509179038091760367
:1018300090917703840F951F90937703809376039D
:1018400060917A0370917B03460F571F5093790381
:101850004093780395958795959587959595879568
:1018600095958795959587958F37910514F08FEF0E
:10187000B6CF80384FEF940714F480E89FEF80587C
:10188000AECF4F925F926F927F928F929F92AF9264
:10189000BF92CF92DF92EF92FF920F931F93CF935D
:1018A000DF938091C90480937C0080917A008064EA
:1018B00080937A0040917800509179004F5F5140B9
:1018C0008091D104882309F4FAC210927B0310920C
:1018D0007A03109277031092760380917A039091A5
:1018E0007B03909379038093780380E8809388004A
:1018F0008091740390917503840F951F97FD019655
:101900009C013595279550937503409374038EE998
:101910009AE090939F0480939E0480916E0390912F
:101920006F0340917E0350917F03480F591FCA01F6
:10193000880F991F840F951F820F931F40917C037E
:1019400050917D03840F951F9595879530936F0374
:1019500020936E0360906C0370906D03209172036E
:1019600030917303260D371D3901660C771C620E0A
:10197000731E680E791E2091700330917103620E00
:10198000731E90936D0380936C03E0918003F0913C
:1019900081038091D10481117DC280916A0390916D
:1019A0006B032091680330916903AC01421B530B18
:1019B0009A014091660350916703B901641B750B4E
:1019C000AB0150937B0340937A0340916503542FFE
:1019D0004F5F40936503511107C0789480916A036B
:1019E00090916B03409165033093670320936603E6
:1019F000909369038093680380913E0102C0F5953E
:101A0000E7958A95E2F7C0904D03D0904E03A090E1
:101A10006103B0906203E0905103F0905203A091F3
:101A20005D03B0915E03B7016A1B7B0B0091550308
:101A300010915603C0915903D0915A0398012C1B61
:101A40003D0B8090490390904A038E1A9F0AC6016D
:101A50008A199B09880F991F880F991F880E991E54
:101A600097FE03C08FE3880E911C082C892C000C74
:101A7000881C9908000C881C991CCB01820F931FAD
:101A800097FD079695958795959587959595879553
:101A9000880E991ECB01880F991F880F991F860FFA
:101AA000971F821B930B97FF02C081589F4F880F8F
:101AB000892F881F990B880D991D37FF02C02F5F52
:101AC0003F4F35952795280F391F80914B039091F3
:101AD0004C0390934A0380934903D0924C03C092E5
:101AE0004B0380914F039091500390934E0380934A
:101AF0004D03F0925003E0924F0380915303909175
:101B00005403909352038093510310935403009312
:101B100053038091570390915803909356038093F9
:101B20005503D0935803C093570380915B03909162
:101B30005C0390935A0380935903B0935C03A09382
:101B40005B0380915F039091600390935E038093A9
:101B50005D03B0926003A0925F0380916303909154
:101B600064039093620380936103F0936403E093B2
:101B7000630380913E0102C0759467948A95E2F7F1
:101B80007092A3046092A204F0934803E093470389
:101B90008090390390903A0380913B0390913C03ED
:101BA00090933A038093390380913D0390913E03D3
:101BB00090933C0380933B0380913F0390914003BB
:101BC00090933E0380933D038091410390914203A3
:101BD0009093400380933F0380914303909144038B
:101BE0009093420380934103809145039091460373
:101BF000909344038093430370924603609245039D
:101C0000280D391D90913803EFEFE90FE093380369
:101C1000C0903403D0903503E0903603F090370342
:101C2000911174C0C092BC04D092BD04E092BE0475
:101C3000F092BF04109234031092350310923603D1
:101C40001092370380917601833009F477C0809138
:101C50007601843009F4FAC1809108018111B5C080
:101C600080914D018E300CF452C180914D018D5008
:101C7000490102C0880C991C8A95E2F78091D4042E
:101C8000811158C18091D304811174C1C0902E0379
:101C9000D0902F03E0903003F0903103EF7309F000
:101CA0001BC2C092AE04D092AF04E092B004F09296
:101CB000B10410922E0310922F0310923003109251
:101CC0003103940181145EEF950614F420E03EEF99
:101CD000211562E0360714F02FEF31E030936B03EB
:101CE00020936A03415040936503DF91CF911F9188
:101CF0000F91FF90EF90DF90CF90BF90AF909F90AB
:101D00008F907F906F905F904F900895C90137FD3D
:101D1000FBC1092E000CAA0BBB0B8C0D9D1DAE1D2B
:101D2000BF1D8093340390933503A0933603B09383
:101D3000370380917601833009F089CF8091A20426
:101D40009091A3042091A2043091A30418161906BF
:101D50001CF03195219531098091470390914803FA
:101D6000181619060CF0D8C28091470390914803C9
:101D7000821793070CF4CDC18091470390914803DB
:101D80002091470330914803181619061CF031952D
:101D9000219531098091A2049091A304A091A204FD
:101DA000B091A304181619061CF0B195A195B109BC
:101DB000B7FD1396B595A795B595A7952A0F3B1F27
:101DC00080910801882309F44BCFC0910501D0917F
:101DD0000601C038D1050CF463C2CE0195958795F4
:101DE00095958795959587959595879595958795DB
:101DF000829F4001839F900C929F900C1124959498
:101E0000879495948794D40197FE04C0AA27BB2792
:101E1000A819B909AB2FBB0FBB0BA730B1050CF04C
:101E20006BC2159714F010920401809102019091F9
:101E3000030101979093030180930201892B09F517
:101E4000809104018823A1F0C11538E7D3070CF075
:101E500063C4CE01959587959595879595958795BA
:101E600095958795C80FD91FD0930601C09305019A
:101E700080E991E0909303018093020181E08093D7
:101E8000040120914D0180E190E0821B910927FD22
:101E9000939546C010926B0310926A0310926903E7
:101EA0001092680310926703109266031092D10497
:101EB00050E040E030E020E090E080E082CD2091F2
:101EC0007803309179038091760390917703820FA4
:101ED000931F909377038093760360917A037091B8
:101EE0007B03260F371F3093790320937803959552
:101EF00087959595879595958795959587959595CA
:101F000087958F3791050CF40FC28FEFEFCC50916E
:101F10004D018DE090E0851B910957FD9395490196
:101F200002C0959487948A95E2F78091D40488231F
:101F300009F4A8CEC0911A03D0911B03A091D40438
:101F4000C4018C1B9D0BA150BB0B61E070E002C073
:101F5000660F771FAA95E2F70E9496334B018C0E0D
:101F60009D1E90921B0380921A038091D3048823B4
:101F700009F48CCE8091D304E0902A03F0902B03D7
:101F80000091260310912703843008F0D9C0809176
:101F90002C0390912D0390922D0380922C03881A8C
:101FA000990A2EE1289DC001299D900D112459E127
:101FB0005E9D90015F9D300D1124820F931F97FD50
:101FC0004F96959587959595879595958795959530
:101FD0008795959587952091D304223009F495C271
:101FE000233009F476C2213009F43FC2A0912203C4
:101FF000B09123032091D304C0912003D0912103F9
:10200000223009F406C2233009F4DAC2213009F47F
:10201000A0C280901C0390901D03D0931F03C09317
:102020001E039092210380922003109325030093B6
:102030002403B0932703A0932603F0922903E09290
:10204000280390932B0380932A0320CE2091A2048F
:102050003091A304C0914703D09148037E01D7FD7E
:1020600046C1890137FD3EC10E151F050CF42BC179
:1020700070E060E021153105F1F056E25E9DC0018F
:102080005F9D900D9E191124B8010E9496336D5CDE
:102090007C4F6E9DC0016F9D900D7E9D900D112413
:1020A000B8010E94963337FF06C085E699E09C018F
:1020B000261B370BB901D7FF03C0719561957109D4
:1020C00080913203909133039B01281B390B70934D
:1020D000330360933203C0CDC40197FE04C0882748
:1020E000992788199909092E000CAA0BBB0B8C0D96
:1020F0009D1DAE1DBF1D80932E0390932F03A093B3
:102100003003B0933103DDCD88279927821B930BD1
:1021100000CE8091A2049091A3042091A20430915A
:10212000A304181619061CF03195219531098091E8
:10213000470390914803A0914703B091480332CEE2
:102140008091D304853009F463C208F410C186304D
:1021500009F4F2C0873009F056C22091240330916F
:102160002503A3ECBFEF0E94F1332B013C012EE6C7
:1021700030E0D8010E940834460E571E681E791EB2
:1021800077FE05C08FE3480E511C611C711CC30112
:10219000B20136E095958795779567953A95D1F791
:1021A000E701C60FD71FD0932303C093220380916A
:1021B000D304C0902003D0902103853009F443C29A
:1021C00008F4F3C0863009F473C2873009F06BC29B
:1021D000C801880F991FBE01681B790BA0902403CA
:1021E000B0902503A60EB71EB7FE03C08FE1A80E60
:1021F000B11CB594A794B594A794B594A794B5943D
:10220000A794B594A79420911E0330911F03A2ECCC
:10221000BFEF0E94F1332B013C0120E730E0D601F3
:102220000E940834460E571E681E791E77FE05C0B0
:102230002FE3420E511C611C711CC301B20126E048
:1022400095958795779567952A95D1F76A0D7B1DAA
:1022500070931D0360931C03D0921F03C0921E0352
:1022600070932103609320031093250300932403AC
:10227000D0932703C0932603F0922903E09228030A
:1022800090922B0380922A0377FF02C0695F7F4FF1
:102290004B01959487949594879495948794F6CC64
:1022A000359527953595279535952795DE01B59573
:1022B000A795B595A795A29F4001A39F900CB29FAB
:1022C000900C11249CCD6DEC7CEF069FC001079F04
:1022D000900D169F900D1124B7010E9496336E54F5
:1022E0007B4FE1CE00271127021B130BBDCEEE243E
:1022F000FF24EC1AFD0AB5CECE01959587959595EC
:1023000087959595879595958795C81BD90BD093FB
:102310000601C0930501B5CD809147039091480314
:1023200091958195910924CD80382FEF920714F46F
:1023300080E89FEF8058DACA20912403309125036A
:10234000A2ECBFEF0E94F1332B013C012EE630E0FE
:10235000D8010E940834460E571E681E791E77FE6B
:1023600016CF7FE3470E511C611C711C10CF8430C7
:1023700009F049C12091240330912503A7ECBFEF58
:102380000E94F1332B013C0122E730E0D8010E948A
:102390000834460E571E681E791E77FEF8CE5FE39E
:1023A000450E511C611C711CF2CE843009F07BC1BA
:1023B00020911E0330911F03ACECBFEF0E94F1335C
:1023C0002B013C012FE530E0D6010E940834460E77
:1023D000571E681E791E77FE05C02FE3420E511C62
:1023E000611C711CB6E07594679457944794BA9534
:1023F000D1F7C801880F991F9E01281B390B8091C6
:10240000240390912503280F391FB901640D751D10
:102410001FCF4801880C991C8A0E9B1E2091240313
:1024200030912503820E931E97FE03C073E0870E42
:10243000911C9594879495948794C0901E03D09096
:102440001F03CC0CDD1CCC0EDD1ED7FE03C023E029
:10245000C20ED11CD594C794D594C7948C189D08EE
:1024600090921D0380921C03D8CDD701AA0FBB1FE9
:10247000A80FB91F2091280330912903A20FB31F81
:10248000B7FD1196B595A79560912403709125032A
:102490005BE0569F9001579F300D11245DE0509FE7
:1024A000B001519F700D1124260F371F37FF02C056
:1024B000215F3F4F3595279535952795359527957C
:1024C00035952795A21BB30BB0932303A09322034A
:1024D00091CDD701AA0FBB1FA80FB91F20912803C8
:1024E00030912903A20FB31FB7FD1196B595A7959B
:1024F000209124033091250337FF02C02D5F3F4F09
:102500003595279535952795DDCFD701AA0FBB1FA8
:10251000A80FB91F2091280330912903A20FB31FE0
:10252000B7FD1196B595A795209124033091250309
:10253000220F331F220F331F200F311F37FF02C01E
:10254000295F3F4F359527953595279535952795E3
:10255000B9CF4801880C991C8A0E9B1E2091240338
:1025600030912503820E931E97FE03C05FEF851AFC
:10257000950A9594879420911E0330911F035BE088
:10258000529F6001539FD00C11249E01220F331FD4
:10259000220F331F220F331F2C0F3D1F220F331F1B
:1025A000C20ED31ED7FE03C06FE0C60ED11CD59459
:1025B000C794D594C794D594C794D594C7944ECF57
:1025C0004801880C991C8A0E9B1E2091240330918F
:1025D0002503820E931E97FE03C033E0830E911CE9
:1025E000959487949594879420911E0330911F03AE
:1025F00037FF02C02D5F3F4F3595279535952795BD
:10260000821A930A2DCFC0912203D0912303CFCDFC
:102610002091240330912503A4ECBFEF0E94F133F5
:102620002B013C0121E730E0D8010E940834460E1E
:10263000571E681E791E77FEAACD6FE3460E511C09
:10264000611C711CA4CDC801880F991FBE01681BB5
:10265000790BA0902403B0902503A60EB71EB7FEF9
:1026600003C033E0A30EB11CB594A794B594A7940E
:1026700020911E0330911F03A5ECBFEF0E94F133A0
:102680002B013C012AE630E0D6010E940834460EB8
:10269000571E681E791E77FED0CD5FE3450E511C94
:1026A000611C711CCACD60911C0370911D03D4CDB7
:1026B000C801880F991FBE01681B790BA0902403E5
:1026C000B0902503A60EB71EB7FE03C06FE0A60E9E
:1026D000B11CB594A794B594A794B594A794B59458
:1026E000A79420911E0330911F03A2ECBFEF0E941C
:1026F000F1332B013C0121E730E0D6010E94083480
:10270000460E571E681E791E77FE97CD7FE3470E53
:10271000511C611C711C91CD8FEF9FE790930601B6
:1027200080930501A5CBE3E6F1E09181919391E0DF
:10273000E237F907D1F78093720181E08093DD04DD
:102740000895CF93DF938091920480938A00E09163
:102750004C0184E0E89FF0011124EF54FE4F2081EA
:10276000318142815381A4E7B2E00E940F342AEC08
:1027700032E140E050E00E94AA3330E04091000195
:1027800050910101E0910403F0910503249FC001E1
:10279000259F900D349F900D1124C4E6D0E0BE011A
:1027A0000E9496336E0F7F1F70930503609304039E
:1027B0004091040350910503E0910001F091010163
:1027C000249FC001259F900D349F900D1124BE01C0
:1027D0000E949633E61BF70BF0930101E093000192
:1027E000809104039091050340914D0120E130E078
:1027F000241B310947FD339502C0959587952A958D
:10280000E2F7805880938800DF91CF9108950F936D
:102810001F93CF93DF93E2EEF2E020E033E04281BA
:102820005381419351932E173F07C9F72091E0023E
:102830003091E102280F391F37FF02C02F5F3F4F51
:10284000359527953093E1022093E002821B930B8C
:102850009093010380930003E091F002F091F10264
:102860008091EE029091EF024091F2025091F302BA
:10287000841B950B2091E6023091E7024091FA0209
:102880005091FB02241B350B220F331F220F331FE5
:102890004091E2025091E3026091FE027091FF02CA
:1028A000461B570B240F351F220F331F4091EA029E
:1028B0005091EB026091F6027091F702461B570BA4
:1028C000A5E1A49FB001A59F700D1124260F371F0D
:1028D0006FE0689FA001699F500D1124240F351FE0
:1028E00037FF02C021583F4F220F232F221F330BE7
:1028F00097FD019695958795280F391FEF01F7FFF2
:1029000004C0CC27DD27CE1BDF0B890137FF04C0B5
:1029100000271127021B130B0C171D070CF079C0A1
:10292000C80195958795959587958C0F9D1F40912A
:1029300037014817190608F076C04091DF044111AD
:1029400070C04FEF4093DF044091360102C0880F02
:10295000991F4A95E2F78F3F910509F020F44091C5
:102960003601483011F48FEF90E04091DF044423AA
:1029700009F462C08D569C4FDC018C918093060354
:10298000C017D1070CF05AC046E24C9FC0014D9FC2
:10299000900D9C1B1124B8010E9496336D5C7C4FF6
:1029A0006C9FC0016D9F900D7C9F900D1124B8010C
:1029B0000E94963382EB94E0AC01461B570BBA01A0
:1029C000F7FF06C085E699E0DC01A61BB70BBD0149
:1029D00037FF03C07195619571098091DE02909176
:1029E000DF029B01281B390BC9017093DF02609342
:1029F000DE0237FF02C086539D4E209176012130C2
:102A000019F0919581959109DF91CF911F910F91C7
:102A10000895CE019595879595958795800F911F7F
:102A200086CF4EEF8FCF4091DF04442309F48CCF43
:102A30004091DF04415086CF80E0A0CF70E060E09D
:102A4000309731F246E2409FC001419F900D901BAC
:102A50001124BE010E9496336D5C7C4F609FC001C3
:102A6000619F900D709F900D1124BE010E949633BE
:102A7000A7CFCF93DF93C0917800D0917900809158
:102A80007A00806480937A000E943C06809106035D
:102A900080938A008091780090917900C80FD91FA7
:102AA00080917A00806480937A00809102039091F3
:102AB00003030E9407142091780030917900C20F1F
:102AC000D31F20917A00206420937A000E94390459
:102AD000209178003091790090917A0090649093E1
:102AE0007A00CE01820F931F97FD039695958795E7
:102AF000959587959250909303038093020380915C
:102B0000DF04813021F46FEF83E00E94AC068091F6
:102B1000DF048F3F31F46BEF83E0DF91CF910C94B2
:102B2000AC06DF91CF910895CF93DF93EC016C83D6
:102B30004D830E94E80288E70E94050380E00E941E
:102B400005038D8187709E81892B0E9405038C81EE
:102B500082958F7080610E9405038C818F700E9426
:102B60000503DF91CF910C947F09809160016CE0A7
:102B7000869F600D112442E08FEF94E00C94941531
:102B800090916001980F9093600190916001911174
:102B900003C098E09093600190916001993018F023
:102BA00091E09093600190916001943021F09091B8
:102BB0006001923029F490916001890F8093600147
:102BC0000C94B515BF92CF92DF92EF92FF920F93C4
:102BD0001F93CF93DF9300D01F92CDB7DEB79B83B7
:102BE0008A836A3021F0FC018481853728F1EA81EB
:102BF000FB818781882369F085818E5F8330C0F4F3
:102C00008583EA81FB814581440F60E0CF010E940A
:102C1000941581E090E00F900F900F90DF91CF918D
:102C20001F910F91FF90EF90DF90CF90BF9008958C
:102C300082E0EA81FB81E4CFFCE06F9F80011124F8
:102C4000005811401695079562E0698306511F4FA1
:102C5000CC24C394D12C0E94E80288E70E9405038B
:102C600080E40E940503F12CE12CF801EE0DFF1D1C
:102C7000E4917981723009F047C090E080E0B12C96
:102C8000F0E09F01082E02C0359527950A94E2F7DF
:102C900020FF38C0AC01440F551F9A012F5F3F4FF2
:102CA000B60102C0660F771F2A95E2F79B01B601B5
:102CB00002C0660F771F4A95E2F7262BB22A0196CB
:102CC00084309105F1F68B2D0E9405038B2D0E9417
:102CD00005037FEFE71AF70A86E0E816F10429F604
:102CE0000E947F09EA81FB814581F981F230E9F494
:102CF0004F5FEA81FB816481CF010E949415F1E06E
:102D0000F983A9CF20E0DACF83E0E4FF80E09CE004
:102D1000E5FF90E0892B90E3E6FF90E0892B90E0BF
:102D2000E7FD90ECB92EB82ACECF4150EA81FB8165
:102D30006481645F6BCF682F8FEF94E00C94E21591
:102D40008F929F92AF92BF92CF92DF92EF92FF92BB
:102D5000CF93DF93C091A404D091A5048091180370
:102D600090911903C817D90709F483C042E064EBB6
:102D70008FEF94E00E94941582E5209709F480E299
:102D80000E949B160E94B515C0900703D0900803BF
:102D9000E0900903F0900A03C130D10509F0ACC0FE
:102DA0000E941E066093140370931503809316030C
:102DB000909317030E941E068090100390901103B9
:102DC000A0901203B09013039B01AC01281939099C
:102DD0004A095B0949015A0180920C0390920D0344
:102DE000A0920E03B0920F03E0910B03E23098F132
:102DF000D701C601880F991FAA1FBB1F8815990507
:102E0000AA05BB0544F5E7FD08C0F0E0E65DFC4F10
:102E100084918A3211F00E94931381E080930B0316
:102E200060EB74E080E090E0A70196010E94CC3353
:102E3000CA01B90152E0660F771F881F991F5A9582
:102E4000D1F723E030E040E050E00E94CC333093F3
:102E50003D0120933C01A5E0B0E0A70196010E944E
:102E60000F3486169706A806B9061CF080E20E9469
:102E700093130E941E06C0901003D0901103E0909F
:102E80001203F09013039B01AC012C193D094E096C
:102E90005F0969017A01209107033091080340918D
:102EA000090350910A03A6E0B0E00E940F346C15AC
:102EB0007D058E059F0588F4E0910B03E23068F0F4
:102EC000E7FD08C0F0E0E65DFC4F84918A3211F026
:102ED0000E94931381E080930B03D0931903C09356
:102EE0001803DF91CF91FF90EF90DF90CF90BF90CC
:102EF000AF909F908F900895209709F0BACF0E94CD
:102F00001E06609310037093110380931203909335
:102F100013030E941E068090140390901503A09046
:102F20001603B09017039B01AC01281939094A090F
:102F30005B0949015A01D701C601880F991FAA1FD1
:102F4000BB1F88169906AA06BB062CF0C114D10433
:102F5000E104F104C1F4C501B4016C0D7D1D8E1DA9
:102F60009F1D6C0D7D1D8E1D9F1D23E030E040E0F8
:102F700050E00E94CC332093070330930803409322
:102F8000090350930A0320910703309108034091ED
:102F9000090350910A03A5E0B0E00E940F346815C0
:102FA00079058A059B0584F4C501B40123E030E06E
:102FB00040E050E00E94CC33209307033093080395
:102FC0004093090350930A03C0900703D09008036D
:102FD000E0900903F0900A03C701B60122E030E057
:102FE00040E050E00E94CC33281539054A055B05C6
:102FF0000CF03FCF80910B0390E0880F991FCC0C11
:10300000DD1CEE1CFF1C21E0C814D904EA04FB04FB
:103010000CF020E0822B80930B032BCFCF93C82F93
:10302000809170008D7F80937000F894C093DF04CE
:10303000CC2309F480C08091050190910601909302
:103040008F0380938E031092D9041092DA041092A9
:10305000DB041092DC0480917601823009F462C0B6
:1030600008F459C0833009F460C0843009F460C0AA
:103070007894CC2309F49BC08091CA0480937C008F
:103080001092A00480917501882361F080917601EF
:10309000823041F48C2F90E09093A5048093A40497
:1030A0000E94A016CC2309F490C060E088E00E9442
:1030B000480542E064EB8FEF94E00E94941584E5AC
:1030C0000E949B1680917601823009F074C0809135
:1030D000C4049091C504A091C604B091C704919511
:1030E000819591090E9439040E943C066BEF83E0B0
:1030F0000E94AC06109288008091800080628093CC
:10310000800080E48093B30080917000826080939F
:103110007000CF91089589E395E190939F04809387
:103120009E04A6CF81EA93E1F8CF8BEA99E0F5CF30
:1031300081ED99E0F2CF80919003882329F180916D
:10314000D9049091DA04A091DB04B091DC04892BBE
:103150008A2B8B2BC9F40E941E06605C7F4F8F4F19
:103160009F4F6093D9047093DA048093DB049093AB
:10317000DC04809176018230B9F480919003882339
:1031800099F08AEE99E0C9CF80918E0390918F03D8
:1031900090930601809305011092D9041092DA04ED
:1031A0001092DB041092DC0481E49CE0B6CF81E055
:1031B0008093D10465CF8091D5049091D604892B5A
:1031C00009F494CF90E080E08DCF809180008F7DD6
:1031D0008093800060E08AE00E94480510928A0097
:1031E0008091CB0461E0823009F460E088E00E94C5
:1031F00048058091D5049091D6040E9439040E941C
:103200003C066CEF83E00E94AC0642E064EB8FEF7B
:1032100094E00E9494158091E404811105C082E538
:103220000E949B1684E06ECF86E5FACF0F931F9322
:10323000CF93DF938C01D0E0C0E0F801EC0FFD1FCD
:103240006491662341F08FEF94E00E94E215892B90
:1032500011F02196F2CFCE01DF91CF911F910F9106
:10326000089588EA93E00C9416190F931F93CF9357
:10327000C62F8A018130D1F540E060E08FEF94E005
:103280000E9494158C2F82958F70CF708A3021F414
:1032900081E30E949B1680E0805D0E949B168EE277
:1032A0000E949B16CA3020F0CA5081E30E949B16F0
:1032B00080E38C0F0E949B1680E20E949B16C8013F
:1032C0000E9416190E9431190E94311942E060E0F3
:1032D0008FEF94E00E9494158091DE048230B1F467
:1032E0008EE3CF911F910F910C949B1642E060E00A
:1032F0008FEF94E00E949415C8010E94161987EB85
:1033000093E0CF911F910F910C941619CF911F91BB
:103310000F91089540E060E08FEF94E00E949415D3
:1033200082EB93E00E94161981E00E949B160E9496
:1033300031190C943119089590E080E008958F922E
:103340009F92AF92BF920F931F93CF93DF93CDB70E
:10335000DEB7A1970FB6F894DEBF0FBECDBF19A29E
:10336000423008F44AE08E010F5D1F4F842E912CED
:10337000B12CA12CA50194010E94AA33E62FB9011A
:10338000CA01EA3044F5E05DD801EE938D01232BAC
:10339000242B252B79F790E080E0109769F0FD0150
:1033A00001900020E9F73197AF014A1B5B0BBD018B
:1033B0008FEF94E00E94C904A1960FB6F894DEBF87
:1033C0000FBECDBFDF91CF911F910F91BF90AF90F6
:1033D0009F908F900895E95CD7CF009769F0FC012A
:1033E00001900020E9F73197AF01481B590BBC0150
:1033F0008FEF94E00C94C90490E080E00895CF92A0
:10340000DF92EF92FF92CF93DF9397FF19C06B018A
:103410007C018DE20E949B16EC0166277727CB0189
:103420006C197D098E099F094AE00E949F198C0F33
:103430009D1FDF91CF91FF90EF90DF90CF90089587
:103440004AE0DF91CF91FF90EF90DF90CF900C9406
:103450009F19EF92FF921F93CF93DF937C01EB01B3
:10346000142F42E060E08FEF94E00E94941581E217
:103470000E949B1681E20E949B16C7010E941619AA
:103480008DE30E949B16BE01DD0F880B990B0E94F5
:10349000FF19812F0E949B160E9431196CED75E077
:1034A00080E090E00E94EC05A895DF91CF911F91FC
:1034B000FF90EF9008950F931F93CF93DF936FEFDB
:1034C00086E00E945B066FEF87E00E945B0660E08B
:1034D00082E00E945B0660E086E00E945B0660E09E
:1034E00083E00E945B0660E087E00E945B06D0E01C
:1034F000C0E001E010E0C8010C2E02C0880F991F47
:103500000A94E2F78095909582600E946E066EE1C3
:1035100070E080E090E00E94EC0590E080E00E9486
:103520006E062196C031D10531F7DF91CF911F9101
:103530000F9108950F931F93CF93C42F8430C1F040
:10354000853071F1833041F58B0180919103909129
:1035500092039C012F5F3F4F30939203209391037E
:103560000E94952FF80181938F01C15071F714C00B
:103570008B01A895F80161918F0180919103909141
:1035800092039C012F5F3F4F30939203209391034E
:103590000E949D2FC15069F7CF911F910F910895FF
:1035A00040919103509192034C0F511D50939203FF
:1035B00040939103F1CF4F925F926F927F928F92DF
:1035C0009F92AF92BF92CF92DF92EF92FF920F93B2
:1035D0001F93CF93DF93CDB7DEB7FB01642F82300B
:1035E00008F05CC090814090E504042C000C550864
:1035F00066087708490E511C611C711C4C145D044F
:103600006E047F0434F5C082A9017F011092E504A5
:103610000E943519F70101151105A1F5608170E0CF
:1036200090E080E04AE00E949F190E943119DF91EA
:10363000CF911F910F91FF90EF90DF90CF90BF90AF
:10364000AF909F908F907F906F905F904F900C9471
:1036500031199081C090E5040C2C000CDD08EE08B7
:10366000FF08C90ED11CE11CF11C8C149D04AE0492
:10367000BF0414F48082C8CF40819091E504940F78
:103680009083C2CF808190E0880F991F080F191F87
:10369000F801808191810E94ED19C7CF41E0BF01FF
:1036A000DF91CF911F910F91FF90EF90DF90CF901E
:1036B000BF90AF909F908F907F906F905F904F9052
:1036C0000C949A1A0F931F93CF93DF93EB018230E0
:1036D00008F052C0088119812A813B819091E5044C
:1036E000492F990F550B660B770B400F511F621F27
:1036F000731F77FF19C0188219821A821B821092D9
:10370000E50450E040E060E00E943519688179816D
:103710008A819B810E94FF190E943119DF91CF910C
:103720001F910F910C943119088119812A813B81D5
:103730009091E504492F990F550B660B770B400FBD
:10374000511F621F731F14161506160617069CF2EA
:10375000088119812A813B819091E504492F990FB5
:10376000550B660B770B400F511F621F731F488369
:1037700059836A837B83C3CF44E0DF91CF911F914C
:103780000F910C949A1A6F927F928F929F92AF92A0
:10379000BF92CF92DF92EF92FF920F931F93CF933E
:1037A000DF93CDB7DEB7AE970FB6F894DEBF0FBE8E
:1037B000CDBF782E662E8DEF870D823078F480E5B0
:1037C00091E0909392038093910311E0161530F4E9
:1037D000612F85E00E94C31B1F5FF8CF2FEF62129D
:1037E0000AC066246394662D872D0E94C31B6394D0
:1037F00089E26812F8CF84E1E7E7F1E0DE01119693
:1038000001900D928A95E1F780E1EBE8F1E0DE01AD
:10381000559601900D928A95E1F78AE0EBE9F1E087
:10382000DE01959601900D928A95E1F798E2961542
:1038300008F425C3E62DF0E0E05EF34E0C94EB3384
:10384000371F491CA91CD11CE11CF11C021D111DB4
:10385000701DC01DD01DE11DF11D021E3F1F3F1F29
:10386000111E3F1F3F1F3F1F3F1F201E2F1E3F1FC8
:103870003E1E4E1EBF1ED41EE51E3F1F3F1F3F1F94
:103880003F1F3F1F3F1FF51E041F0A1F0D1F1B1F59
:10389000291F21E0271508F455C080914D01409162
:1038A000E504082E000C990BAA0BBB0B042E000C90
:1038B000550B660B770B840F951FA61FB71F8F3F05
:1038C0009F4FAF4FBF4F04F58FEF80934D01109284
:1038D000E5044CE554E061E1872D0E9435198091A3
:1038E0004D0187FD03C08BE20E949B1660914D0144
:1038F000062E000C770B880B990B0E94FF190E9473
:1039000031190E94311937C080914D014091E50471
:10391000082E000C990BAA0BBB0B042E000C550BA8
:10392000660B770B840F951FA61FB71F4197A10544
:10393000B10514F080E1C9CF80914D019091E5046B
:10394000890FC3CF41E06DE471E0872D0E949A1A80
:1039500012C034E0832E912CA12CB12CC12CD12C7F
:1039600076010FE311E027E534E042E166E771E01C
:10397000872D0E94DB1A862DAE960FB6F894DEBF17
:103980000FBECDBFDF91CF911F910F91FF90EF90B0
:10399000DF90CF90BF90AF909F908F907F906F906F
:1039A000089527E0822E912CA12CB12CC12CD12C72
:1039B000760105E211E02DE434E043E163ED74E0CB
:1039C000D7CF99E0892E912CA12CB12CC12CD12CD0
:1039D000760101E111E028E434E044E16EE471E0B5
:1039E000C7CF89E0882E912CA12CB12CC12CD12CD1
:1039F00076018E010F5F1F4F2EE334E045E160E654
:103A000071E0B6CF812C912C54018394C12CD12C20
:103A100076010DE011E025E334E046E162ED74E06B
:103A2000A7CF81E0871508F457C08091D504909105
:103A3000D6044091E504092E000CAA0BBB0B042E02
:103A4000000C550B660B770B840F951FA61FB71F35
:103A5000B7FF19C01092D6041092D5041092E50455
:103A600041E354E067E1872D0E943519E091D504C8
:103A7000F091D604EE0FFF1FE75FFE4F808191812A
:103A80000E94ED193CCF8091D5049091D6044091CD
:103A9000E504092E000CAA0BBB0B042E000C550BE1
:103AA000660B770B840F951FA61FB71F0297A10502
:103AB000B1053CF081E090E09093D6048093D5046A
:103AC000CDCF8091D5049091D6042091E504820F4A
:103AD000911D27FD9A95F0CF42E065ED74E035CF5A
:103AE00091E0971508F448C0209108018091E50401
:103AF000082E000C990BAA0BBB0B820F911DA11D68
:103B0000B11DB7FF0EC0109208011092E5044DE2FE
:103B100054E068E1872D0E943519E0910801F0E03A
:103B2000A9CF209108018091E504082E000C990B83
:103B3000AA0BBB0B820F911DA11DB11D0297A10500
:103B4000B10524F081E080930801DFCF20910801C6
:103B50008091E504082E000C990BAA0BBB0B820F79
:103B6000911DA11DB11D21E0892B8A2B8B2B09F4FE
:103B700020E020930801C9CF41E068E071E0E5CE84
:103B8000B8E08B2E912CA12CB12CC12CD12C76011C
:103B900010E000E02AE234E049E164ED74E0E8CEB0
:103BA000A7E08A2E912CA12CB12CC12CD12C76010E
:103BB0008E010B5E1F4F26E234E04AE16BEC74E0AD
:103BC000D7CEF0E18F2E912CA12CB12CC12CD12C71
:103BD000760110E000E021E234E04BE16EE371E0B9
:103BE000C7CEE4E08E2E912CA12CB12CC12CD12C6F
:103BF00076018E010B5D1F4F29E134E04CE164E753
:103C000071E0B6CE812C912C54018394C12CD12C1F
:103C1000760109E011E02EE034E041E265E771E071
:103C2000A7CE812C912C54018394C12CD12C7601E8
:103C300009E011E025E034E044E260E973E098CE69
:103C4000812C912C54018394C12CD12C760109E054
:103C500011E021E034E041E364EE74E089CE812C90
:103C6000912C54018A94C12CD12C760110E000E0F3
:103C700027EF33E042E367E371E07ACE38E0832E4A
:103C8000912CA12CB12CC12CD12C760110E000E09C
:103C90002EEE33E044E366E371E06ACE21E02715BF
:103CA00008F469C08091F9049091FA04A091FB0492
:103CB000B091FC044091E504042E000C550B660BFA
:103CC000770B840F951FA61FB71F80389F49A54DFE
:103CD000B10504F580E89FE9A5EDB0E08093F90413
:103CE0009093FA04A093FB04B093FC041092E504B3
:103CF00045EE53E061E8872D0E9435196091F90483
:103D00007091FA048091FB049091FC044AE00E94B7
:103D10009F19F5CD8091F9049091FA04A091FB04CC
:103D2000B091FC044091E504042E000C550B660B89
:103D3000770B840F951FA61FB71F81309F43AB4A97
:103D4000B1402CF080E09FE3ABEAB1E0C7CF8091B7
:103D5000F9049091FA04A091FB04B091FC04409105
:103D6000E504042E000C550B660B770B840F951F92
:103D7000A61FB71FB3CF44E069EF74E0E6CD809093
:103D80003501882D8150990B4C01092C000CAA0893
:103D9000BB08C12CD12C760110E000E029ED33E006
:103DA00042E863E974E0E4CDC0909304D12CF12C97
:103DB000E12C812C912C54018A9410E000E02DEC30
:103DC00033E043E865E371E0D3CD94EB892E912C89
:103DD000A12CB12CC12CD12C760110E000E024ECF8
:103DE00033E044E86AE471E0C3CD812C912C5401A6
:103DF0008394C12CD12C760109E011E02AEB33E049
:103E000041EA67E071E0B4CD63E571E0872D0E947F
:103E1000621BB1CD67E571E0F9CF812C912C540183
:103E2000C12CD12C760110E000E030E020E040E031
:103E30006BE571E09DCD812C912C5401C12CD12CCE
:103E4000760110E000E030E020E040E06CE571E059
:103E50008FCD812C912C5401C12CD12C760110E0F6
:103E600000E030E020E040E061EA74E081CD1092B3
:103E7000DE040E948A1981E080935F017CCD92E08C
:103E8000791279CD23E2621609F475CD8091E504AB
:103E90002FEF3FEF181614F421E030E0862D90E06C
:103EA000280F391F2432310514F42091E5042091A4
:103EB000E50412169CF02FEF3FEF820F931F63E291
:103EC00084973CF48091E5046FEF18160CF461E0E0
:103ED000660D82E00E94C31B682E4DCD21E030E0CC
:103EE000ECCFCF9390917E00E1E0F0E0082E01C08E
:103EF000EE0F0A94EAF79E2B90937E0010927A00C0
:103F000010927B0010927C0090917C00892B809312
:103F10007C0080917C0090E4611190EC892B80936F
:103F20007C00C0917A0068EB7BE787E190E00E941B
:103F3000AA33622F70E090E080E00E94C5300E94BA
:103F40008C3128E132E741E35FE30E941D300E949B
:103F5000963067706C2B60937A0080917A0080684D
:103F600080937A00CF9108951F920F920FB60F920F
:103F700011242F933F938F939F93AF93BF9380917F
:103F8000950490919604A0919704B0919804309173
:103F9000940423E0230F2D3758F50196A11DB11D80
:103FA000209394048093950490939604A09397048F
:103FB000B09398048091990490919A04A0919B04E5
:103FC000B0919C040196A11DB11D8093990490931A
:103FD0009A04A0939B04B0939C04BF91AF919F91CE
:103FE0008F913F912F910F900FBE0F901F901895BA
:103FF00026E8230F0296A11DB11DD2CF1F920F926A
:104000000FB60F9211242F933F934F935F936F93AB
:104010007F938F939F93AF93BF93EF93FF93E09121
:104020009E04F0919F040995FF91EF91BF91AF918C
:104030009F918F917F916F915F914F913F912F91C0
:104040000F900FBE0F901F9018951F920F920FB6F2
:104050000F9211240F931F932F933F934F935F93CE
:104060006F937F938F939F93AF93BF93CF93DF9380
:10407000EF93FF93C0919D0480E1C89FE00111245C
:1040800087E00E941F058C0186E00E941F05000F3B
:10409000111F8C2B802B80939D048332B9F08233C7
:1040A000D9F0FF91EF91DF91CF91BF91AF919F91A7
:1040B0008F917F916F915F914F913F912F911F91C0
:1040C0000F910F900FBE0F901F9018958091E504EF
:1040D0008F5F8093E504E5CF8091E5048150F9CFAF
:1040E000CF93DF93CDB7DEB76A970FB6F894DEBFF4
:1040F0000FBECDBF789484B5826084BD84B58160E5
:1041000084BD85B5826085BD85B5816085BD8091A2
:104110006E00816080936E0010928100809181001A
:104120008260809381008091810081608093810012
:10413000809180008160809380008091B1008460D4
:104140008093B1008091B00081608093B000809135
:104150007A00846080937A0080917A0082608093F4
:104160007A0080917A00816080937A0080917A0051
:10417000806880937A001092C10060E08AE00E941B
:10418000480584B714BE88E198E20FB6F894A89564
:10419000809360000FBE9093600080E480937C0069
:1041A0001092680010926B0010926C0010926D00DB
:1041B00062E086E00E94760562E087E00E94760574
:1041C00080916D00806C80936D00809168008460A8
:1041D0008093680087E00E941F057C0186E00E94B2
:1041E0001F05EE0CFF1CE82AE0929D04789460E025
:1041F0008BE00E94480561E088E00E94480560E08D
:104200008AE00E94480560E089E00E94480561E07C
:1042100089E00E94760561E08BE00E94760561E00E
:1042200088E00E94760561E08AE00E94760560E001
:1042300081E10E94760562E08DE00E94760562E0F1
:104240008CE00E94760560E08EE00E94480560E008
:104250008FE00E94480560E08EE00E94760560E0F5
:104260008FE00E94760564E670E080E090E00E94B6
:10427000EC050E94E80288E70E94050380E00E94A6
:1042800005035DEBE52E54E0F52E68EDA62E64E007
:10429000B62EF70184910E940503FFEFEF1AFF0A83
:1042A000AE14BF04B1F70E947F098BE891E001973B
:1042B000F1F71092A3041092A2048091A2049091AD
:1042C000A3040897F9F06091A2047091A30433E06D
:1042D000660F771F3A95E1F7645E7A4F48E050E049
:1042E000CE0101960E948C2F8091A2049091A3048C
:1042F0008091A2049091A30401969093A3048093CB
:10430000A204DBCF0E948A1940E064E58FEF94E0BD
:104310000E94941589E195E00E94161983E195E0C9
:104320000E9416190E9431190E945C096FEF83E008
:104330000E94AC0660E08AE00E94480560E088E0E8
:104340000E94480564E670E080E090E00E94EC0581
:104350008FE00E94B205BC01990F880B990B0E9457
:10436000C7309B01AC010E94AC2F20E030E040EA56
:1043700050E40E94D43120E030E040E85AE30E944B
:10438000D4314B015C0161E088E00E9448052AE9D4
:1043900039E949E950E4C501B4010E9477311816A2
:1043A00054F426E636E646EA50E4C501B4010E941C
:1043B000183087FD09C0C501B4010E948F3046E561
:1043C0008EE095E00E94291A83E10E94B205BC01AB
:1043D000990F880B990B0E94C73020E030E040EA2B
:1043E00050E40E94D43120E030E040E85AE30E94DB
:1043F000D4314B015C012DEC3CEC4CE450E40E94C8
:104400007731181654F423E333E343E750E4C5014E
:10441000B4010E94183087FD09C0C501B4010E9493
:104420008F3046E589E095E00E94291A86E00E94D7
:10443000B20580917C00886080937C0061E070E030
:1044400080E090E00E94EC0580917A008064809387
:104450007A0080917A0086FDFCCF6091780070919F
:10446000790090E080E00E94C5309B01AC016AE9D0
:1044700079EA8CE894E40E941D304B015C0123E34F
:1044800033E343E950E40E947731181654F426E6EA
:1044900036E646EA50E4C501B4010E94183087FDB3
:1044A00009C0C501B4010E948F3046E583E095E064
:1044B0000E94291A599A519A6AE070E080E090E0CF
:1044C0000E94EC0580E10E94B205BC01990F880BA7
:1044D000990B0E94C73020E030E040EA50E40E948F
:1044E000D43120E030E040E85AE30E94D4314B015F
:1044F0005C0126E636E646EE5FE30E947731181649
:1045000054F42DEC3CEC4CE450E4C501B4010E94A1
:10451000183087FD09C0C501B4010E948F3046E5FF
:104520008DEF94E00E94291A8EE00E94B205BC0132
:10453000990F880B990B0E94C73020E030E040EAC9
:1045400050E40E94D43120E030E040E85AE30E9479
:10455000D4314B015C0126E636E646EE5FE30E946D
:104560007731181654F42DEC3CEC4CE450E4C501C2
:10457000B4010E94183087FD09C0C501B4010E9432
:104580008F3046E587EF94E00E94291A8FE00E9461
:10459000B205BC01990F880B990B0E94C73020E02F
:1045A00030E040EA50E40E94D43120E030E040E8BE
:1045B0005AE30E94D4314B015C0126E636E646EE12
:1045C0005FE30E947731181654F42DEC3CEC4CE478
:1045D00050E4C501B4010E94183087FD09C0C5012F
:1045E000B4010E948F3046E581EF94E00E94291AC1
:1045F000A8950E94C7051092A3041092A20480916E
:10460000A2049091A304883E934061F00E943C066E
:104610008091A2049091A30401969093A3048093A7
:10462000A204EDCF0E94C705A8951092A304109292
:10463000A204B12CA12C8091A2049091A304883EE5
:10464000934009F468C08091A2049091A3040E9451
:1046500039040E943C0623E0E22EF12C0E9435062C
:1046600080EC0E94B1038AE18E0D0E94B1030E948A
:104670002A060E94350681EC0E94B10380E80E9460
:104680006E09982E80E40E946E09982A80E20E94AA
:104690006E09982A80E10E946E09982A88E00E949B
:1046A0006E09982A84E00E946E09982A82E00E948E
:1046B0006E09982A81E00E946E09982A3C980000B1
:1046C0000000000000003D98000000000000000015
:1046D0003C983D9A00000000000000000E942A065D
:1046E000F701EA51FB4F8385891519F08FEFA81A5E
:1046F000B80A9FEFE91AF90AE8E0EE16F10409F0AA
:10470000ADCF8091A2049091A30401969093A3044D
:104710008093A20490CFA895A114B10431F040E297
:10472000B50189EE94E00E94291A84E08093360155
:10473000E0914C0124E0E29FF0011124EF54FE4F80
:1047400080819181A281B3818093C4049093C50438
:10475000A093C604B093C70468E283E00E94C31B21
:104760008091A1048D3409F4F2C08DE48093A104FA
:104770006FEF84E00E94C31B42E060E08FEF94E0A3
:104780000E94941588ED94E00E94161964EF71E080
:1047900080E090E00E94EC05A8951092FE04109233
:1047A000FD04FF24F394F0925F0180914E01809309
:1047B0004B011092E4041092D4041092D60410928B
:1047C000D5048091D204082F017010E0000F111F52
:1047D000000F111FF801ED5AFE4F80819181A281D7
:1047E000B38180934F0190935001A0935101B093F6
:1047F00052018091D20480FBCC24C0F8D12CF60168
:10480000E55AFE4F8081809376010E948A090E94BA
:104810008A19F092D1041092A00481E49CE0909354
:104820009F0480939E0424E63EED45E050E061E065
:1048300082E00E94711F80917C008093CA04809165
:10484000CB0461E0813009F460E029E937E741E019
:1048500050E080E00E94711F80917C008093C8042A
:104860008091CB0461E0813009F460E029E937E709
:1048700041E050E081E00E94711F80917C008093B4
:10488000C904109280001092810080918000826A99
:1048900080938000809181008961809381001092D3
:1048A00087008FEF80938600109289001092880015
:1048B00010928B0010928A008091B6008F7D8093B9
:1048C000B6001092B0001092B1001092B200809128
:1048D000B00082608093B0008091B10084608093CA
:1048E000B1008091700082608093700084E08093BA
:1048F000B300809180008F7D8093800060E08AE02B
:104900000E9448058DE00E941F05892B59F542E061
:1049100064EB8FEF94E00E94941584E50E949B164F
:1049200068EE73E080E090E00E94EC0542E064EB0A
:104930008FEF94E00E94941580E20E949B1668EE2F
:1049400073E080E090E00E94EC05A895DBCF81E168
:104950000E941F05892B09F008CF6FEF83E00E94AA
:10496000C31B1BCF80917601823029F48CE00E941A
:104970001F05892B61F222242394312C8091E404B9
:10498000882389F180917601882321F08091760136
:10499000813049F58091E3048111DEC28091E20407
:1049A00091E0980F9093E204803109F09CC28091CD
:1049B000E0049091E10404E0969587950A95E1F76B
:1049C00092500E9407141092E2041092E104109297
:1049D000E0048091DF04882331F081E08093E304D8
:1049E0008FEF0E940E1880917601823009F078C016
:1049F00080917501882309F473C08090AE04909073
:104A0000AF04A090B004B090B104C0903801D09031
:104A10003901E0903A01F0903B01C501B4016C19F5
:104A20007D098E099F0920E031E040E050E00E94BE
:104A3000CC33C20ED31EE41EF51EC0923801D092B4
:104A40003901E0923A01F0923B01C701B60122E040
:104A500030E040E050E00E94CC3301E010E0281547
:104A600039054A055B0514F010E000E01093AD0431
:104A70000093AC048091AA049091AB040817190725
:104A800051F00E941E066093A6047093A7048093C1
:104A9000A8049093A9040E941E068090A6049090FA
:104AA000A704A090A804B090A904681979098A09FC
:104AB0009B09613171058105910508F45CC2809103
:104AC000A4049091A5040817190721F01093A504D8
:104AD0000093A4040E94A0161093AB040093AA04B0
:104AE0008091DE04811166C18091DD048823F9F094
:104AF000809175018823D9F0109174011092DD0422
:104B0000112339F0113009F44BC2133009F04AC2B5
:104B100015E040E060E08FEF94E00E949415812F53
:104B200090E08D599E4F0E94ED190E94B51540915D
:104B3000BC045091BD046091BE047091BF0480918B
:104B4000B8049091B904A091BA04B091BB04841741
:104B50009507A607B70708F427C26091B8047091BB
:104B6000B9048091BA049091BB046093B804709327
:104B7000B9048093BA049093BB041091740111237B
:104B800009F418C12091B6043091B7042F5F3F4F4C
:104B90003093B7042093B6043770232B09F00AC171
:104BA00000913E010E94C5302DEC3CEC4CE85FE3E7
:104BB0000E94D4316B017C01B10102C0660F771FE6
:104BC0000A95E2F7072E000C880B990B0E94C7305C
:104BD0009B01AC01C701B6010E94D43120E030E056
:104BE0004AEF5FE40E941D309B01AC010E94D4316A
:104BF00020E030E048E452E40E941D300E947C3105
:104C000020E030E040E251E40E94D43120E030E086
:104C100040EF51E40E94AC2F6B017C01C092B204C2
:104C2000D092B304E092B404F092B5041130A1F430
:104C300040E06CE68FEF94E00E949415C701B60146
:104C40000E948F30072E000C880B990B0E94FF19D1
:104C50008CE595E00E941619809174018230A9F5C7
:104C6000C090B204D090B304E090B404F090B504C6
:104C700020E030E04CE752ECC701B6010E9418304A
:104C800087FF9BC120E030E04EEF52E4C701B60140
:104C90000E94AC2F20E030E040EC50E40E941D3038
:104CA0000E949630162F40E068EA8FEF94E00E9451
:104CB00094151A3018F483E50E949B16612F70E05A
:104CC00090E080E04AE00E949F1980917401833057
:104CD000E9F5C090B204D090B304E090B404F09031
:104CE000B50420E030E04CE752ECC701B6010E9469
:104CF000183087FF75C120E030E04EEF52E4C70165
:104D0000B6010E94AC2F20E030E040EC50E40E945D
:104D10001D300E948F30FE01319694EF960F8F0167
:104D200082E016162CF481E0860F65300CF085E0E9
:104D3000819363506913F4CF1D8240E060E98FEFE7
:104D400094E00E949415C8010E94ED1980917401AD
:104D50008430D1F440E068EA8FEF94E00E9494152B
:104D600080917601823051F460913C0170913D0157
:104D7000072E000C880B990B0E94FF1980E20E94FD
:104D80009B1680E20E949B160E94B5158091B80484
:104D90009091B904A091BA04B091BB04B695A795BF
:104DA000979587958093B8049093B904A093BA041B
:104DB000B093BB048DE00E941F05892B89F481E02C
:104DC0000E940E188DE00E941F05892B31F4A895D2
:104DD00081E10E941F05892BA9F380E00E940E1833
:104DE000C090D904D090DA04E090DB04F090DC04A9
:104DF000C114D104E104F10451F00E941E06C6164C
:104E0000D706E806F90618F480E00E940E1881E142
:104E10000E941F05892B09F467C48091D80482FD84
:104E200005C08091D804857009F4EDC08091D80444
:104E3000807F9091E504992309F475C19CE0892B4A
:104E40008093D8048091D804843209F4FBC208F01E
:104E500079C1863108F069C1843108F0A2C381317B
:104E600009F4D6C18091DE04811107C09091CC0471
:104E70008091DE04981709F44BC51091E5048091E8
:104E8000DE04813009F037C4112309F436C490914F
:104E9000E5048091D704890F8093D7048091D704CB
:104EA00083322CF48091D70418160CF020C4809122
:104EB000D70483320CF01DC48091D7048093D704AB
:104EC0006091D70482E00E94C31B8093D7041092A4
:104ED000E5048091DE0460E081116091D70481E0F7
:104EE0000E94C31B10C4F89483E880937A008091D9
:104EF0003701803220F060E088E00E944805909100
:104F00007C008091CA0480937C0080917A0084FFA9
:104F1000FCCF80917A00806480937A0080917A003F
:104F200084FFFCCF90937C0080913701803220F089
:104F300061E088E00E944805209178003091790076
:104F400078948091E0049091E104820F931F9093F4
:104F5000E1048093E0043DCD8091DF04811143CDD5
:104F60000E940E181092E30460E270E080E090E08E
:104F70000E94EC0538CDC701B60124E630E040E0E0
:104F800050E00E94CC33C20ED31EE41EF51EC09228
:104F90003801D0923901E0923A01F0923B019ACD6A
:104FA00017E0B7CD13E0B5CD6091BC047091BD049E
:104FB0008091BE049091BF04D8CD20E030E042E95A
:104FC00052E4C701B6010E94AC2F0E949630862F92
:104FD0001AE0612F0E947633819F102D112463CE39
:104FE00020E030E042E952E4C701B6010E94AC2F54
:104FF0000E949630862F2AE0622F0E947633829F8D
:10500000602D112488CEF89480917A0084FFFCCF23
:10501000E0907A00F0907C0080917A00877F809306
:105020007A0080917A00876080937A0080E4809390
:105030007C0061E070E080E090E00E94EC0581E19E
:105040000E94B2058C01E0927A00F0927C00789484
:1050500081E08093D8040E941E066B017C0181E1EF
:105060000E941F05892B71F00E941E066C197D0994
:105070008E099F096D3271408105910578F184E0B8
:105080008093D8046AE070E080E090E00E94EC0534
:105090008091D804843099F00E941E066C197D0915
:1050A0008E099F09643F71408105910540F481E1BB
:1050B0000E941F05892BA1F082E08093D80481E132
:1050C0000E941F05892B89F08091E504882321F037
:1050D0008091D804843031F0A895F1CFA895BFCF46
:1050E000A895D6CF8CE08093D804B80190E080E0FA
:1050F0000E94C5306B017C012DE33AE047E554E4A2
:105100000E94183090E187FD0BC020E932EC45E7A2
:1051100054E4C701B6010E94183090E287FF90E383
:105120008091D8048CCE95E08ACE813209F48EC06D
:10513000823209F42AC18C3109F094CE81E0809347
:10514000DE0490CE823309F42EC208F056C08C32B1
:1051500009F4E6C1813309F40DC2853209F082CE2B
:1051600060914F01709150018091510190915201D5
:105170000E94C7304B015C018091CD049091CE0418
:10518000A091CF04B091D004C12CD12CE0E8EE2E38
:10519000EFE3FE2E181619061A061B0634F0C12C72
:1051A000D12C70E8E72E7FEBF72EBC01CD0197FFE5
:1051B00007C090958095709561957F4F8F4F9F4F59
:1051C0000E94C7309B01AC0160E070E080E090E499
:1051D0000E944132A70196010E94D431A501940199
:1051E0000E94AC2F0E948F3060934F01709350014A
:1051F0008093510190935201AEC0853309F4B0CF32
:105200008C3309F4E0C1843309F02CCE8FEFB7C1A1
:105210008091DE04811107C08091D704811103C001
:1052200081E08093D7048091DE04813069F081E0D1
:105230009091DE04923009F082CF6091D70484E02F
:105240000E94C31B80E07BCF82E0F2CF8091DE041E
:10525000811185C0109176018091D5049091D6047A
:10526000892B99F01092D6041092D50420917601E2
:1052700081E090E0223011F090E080E08F599E4F65
:10528000FC0180818093600166C0809176018F5F10
:105290008093760180917601833010F01092760130
:1052A00080917601823011F41092D40481E090E074
:1052B000123011F090E080E020916001FC01EF5984
:1052C000FE4F20834091760121E030E0423011F022
:1052D00030E020E02F593E4FF901208120936001FA
:1052E0002091D304835A9E4FFC01208320917601A4
:1052F00081E090E0223011F090E080E0835A9E4FF0
:10530000FC0180818093D3049091D2048091760136
:10531000917099871A86E985FA85E55AFE4F808350
:105320008091D20467E280FF66E284E00E94C31BA2
:1053300062E084E00E94C31B63E084E00E94C31B20
:105340001092FE041092FD04123029F48091750130
:1053500081110E948A1981E080935F0183CD809141
:10536000DE04813011F41092DE048091DE0482307C
:1053700009F078CD81E08093DE0480935F01609135
:10538000D70484E00E94C31B6DCD8091D3048F5F4E
:105390008093D30481E08093D104809176018230A0
:1053A00039F48091D304883018F084E08093D304DA
:1053B00080917601823039F48091D304843019F4DD
:1053C00086E08093600180917601823079F480914B
:1053D000D304853021F08091D304863039F4809154
:1053E0006001873018F487E0809360018091760136
:1053F000823059F48091D304873039F48091600170
:10540000883018F488E080936001809176018230C2
:1054100031F08091D304843010F01092D3041092B4
:10542000E50463E080E00E94C31B63E084E00E9427
:10543000C31BA8956CED75E080E090E00E94EC0540
:10544000A89589CF2091D5043091D60481E090E0D1
:10545000232B11F090E080E09093D6048093D50444
:105460008091D5049091D604892B09F052C02091E7
:10547000760181E090E0223011F090E080E08F59D9
:105480009E4FFC018081809360018091D5049091B2
:10549000D604892B09F05FCF9091D20481E091115D
:1054A00080E08093D2048091D20481708B871C8627
:1054B000EB85FC85EE0FFF1FEE0FFF1FED5AFE4F31
:1054C00080819181A281B38180934F01909350019B
:1054D000A0935101B09352018091D20481708D87C5
:1054E0001E86ED85FE85E55AFE4F8081809376010C
:1054F00080917601823079F085E08093600180911F
:105500007601823051F484E08093D3041092D40465
:1055100022CF88E0B8CF86E0F0CF1092D3041BCF23
:10552000C090E5040C2C000CDD08EE08FF0880910B
:10553000CD049091CE04A091CF04B091D004C80EB8
:10554000D91EEA1EFB1EC092CD04D092CE04E0927A
:10555000CF04F092D0041092E50440E060E08FEFB9
:1055600094E00E949415C701B6010E94FF190E94A1
:10557000311978CC8091DE04811104C081E00E9451
:10558000C01570CC8091DE048091DE04823049F435
:1055900081E080935F016091D70484E00E94C31B87
:1055A000CDCD82E0CCCD80914E018F5F8A3020F44A
:1055B00080934E0185E066CE10924E01FBCF61E0F4
:1055C00084E00E94C31B81E10E941F05892B09F41E
:1055D000C2CEA8958091E5048823A9F361E080E01C
:1055E0000E94C31B80914D0187FFE9CF8AE0809321
:1055F0004D0161E084E00E94C31B42E060E08FEF58
:1056000094E00E94941581E695E00E9416190E948C
:10561000311987EF84BF0FB6F894A8958091600088
:10562000886180936000109260000FBE80917000CE
:105630008D7F8093700061E070E080E090E00E94D8
:10564000EC051092880010928A0080917A00877F82
:1056500080937A0080917A00876080937A0080E45A
:1056600080937C000E945C096CED75E080E090E026
:105670000E94EC051092680010926B0010926C0072
:1056800010926D0010926E0010926F0010927000D8
:105690001092600080916C00886080936C00809113
:1056A00068008260809368008FEF809364005B984D
:1056B00083B7817F846083BF83B7816083BF789421
:1056C00085B7806685BF8F7D85BF889583B78E7FC0
:1056D00083BF88E198E00FB6F894A89580936000A6
:1056E0000FBE90936000FFCF1092D804BBCB81E037
:1056F000E5CB83E2E3CB1111ECCB9091CC0480910C
:10570000DE049813E6CB8091DE048093CC04809174
:10571000DE04823009F0FCC0112309F4F9C042E034
:1057200060E08FEF94E00E9494158091D70482305E
:1057300069F59091D2048091760191709F87188AC3
:10574000EF85F889E55AFE4F80838091D20467E2A5
:1057500080FF66E284E00E94C31B81E080935F01CA
:105760001092FE041092FD0480917601823009F4BB
:10577000E1C285E08093600180917601823009F07A
:10578000DBC284E08093D3041092D4048091D704C8
:10579000843019F481E080935F018091D7048630D2
:1057A000C9F59091D2049170998B1A8AE989FA8986
:1057B000EE0FFF1FEE0FFF1FED5AFE4F408151818C
:1057C0006281738140934F01509350016093510166
:1057D000709352019091D20491709B8B1C8AEB893B
:1057E000FC89E55AFE4F9081909376019091760165
:1057F000923009F085E080936001809176018230DB
:1058000009F09DC284E08093D3041092D40481E017
:1058100080935F018091D704873069F48091D5042B
:105820009091D604892B09F48DC288E080936001A1
:1058300081E080935F018091D7048A30C9F5F894A4
:105840006091CB046095617029E937E741E050E051
:1058500080E00E94711F80917C008093C804609159
:10586000CB046095617029E937E741E050E081E0C1
:105870000E94711F80917C008093C904789460918C
:10588000CB046695617081E0682788E00E94480536
:105890006091CB0462FB662760F98EE00E9476057A
:1058A0006091CB0462FB662760F98FE00E94760569
:1058B0008091D704893119F481E080935F01809150
:1058C000D7048A3121F08091D7048B3111F40E94E2
:1058D0008A098091D7048E30A1F480914C01811106
:1058E00033C28CEB92E0A0E0B0E08093C4049093CC
:1058F000C504A093C604B093C7046FE084E00E947F
:10590000C31B8091D7048C3119F481E080935F012F
:105910008091DE04811152C08091E504882309F44E
:105920004DC0A091E504E091600124E0E29FF00108
:105930001124E354FE4F20813181428153818091B3
:10594000D5049091D604892B09F409C26091D5043D
:105950007091D6040A2E000CBB0BA29FC001A39F1E
:10596000900DB29F900D1124860F971F9093D6042F
:105970008093D5048091D5049091D60480319742CC
:1059800044F48091D5049091D604813F984D0CF455
:10599000E0C18091D5049091D604803197420CF0FB
:1059A000DBC18091D5049091D6049093D604809366
:1059B000D50481E080935F011092E50480915F013E
:1059C000882309F488C18091DF04811184C180910A
:1059D000E304811180C110925F0180914E0190918A
:1059E0004B019817A1F094E0899FF0011124EB512D
:1059F000FE4F408151816281738140934F015093EA
:105A00005001609351017093520180934B0120919A
:105A1000D20480914F0190915001A0915101B09119
:105A2000520121702D8B1E8AED89FE89EE0FFF1F1A
:105A3000EE0FFF1FED5AFE4F80839183A283B38345
:105A40000E941E0668517C4F8F4F9F4F6093C00489
:105A50007093C1048093C2049093C3048091DE04C8
:105A60008111B1C0C0904F01D0905001E090510120
:105A7000F090520142E060E08FEF94E00E949415B4
:105A80008091D5049091D604892B09F0C3C140912F
:105A9000D2043091D2042091DF0481E090E03230D2
:105AA00011F090E080E030E08223932341704F8B2F
:105AB000188EEF89F88D8E2B9F2B892B09F4ACC1A2
:105AC00087E00E949B168091D5049091D604892B83
:105AD00009F4A6C1C090D504D090D6040D2C000CBA
